{
  "_format": "hh-sol-artifact-1",
  "contractName": "FraudAnalytics",
  "sourceName": "contracts/FraudAnalytics.sol",
  "abi": [
    {
      "inputs": [],
      "stateMutability": "nonpayable",
      "type": "constructor"
    },
    {
      "inputs": [
        {
          "internalType": "address",
          "name": "owner",
          "type": "address"
        }
      ],
      "name": "OwnableInvalidOwner",
      "type": "error"
    },
    {
      "inputs": [
        {
          "internalType": "address",
          "name": "account",
          "type": "address"
        }
      ],
      "name": "OwnableUnauthorizedAccount",
      "type": "error"
    },
    {
      "anonymous": false,
      "inputs": [
        {
          "indexed": true,
          "internalType": "address",
          "name": "subject",
          "type": "address"
        }
      ],
      "name": "AddressBlacklisted",
      "type": "event"
    },
    {
      "anonymous": false,
      "inputs": [
        {
          "indexed": true,
          "internalType": "address",
          "name": "subject",
          "type": "address"
        },
        {
          "indexed": false,
          "internalType": "uint8",
          "name": "previousScore",
          "type": "uint8"
        },
        {
          "indexed": false,
          "internalType": "uint8",
          "name": "newScore",
          "type": "uint8"
        }
      ],
      "name": "AddressRiskUpdated",
      "type": "event"
    },
    {
      "anonymous": false,
      "inputs": [
        {
          "indexed": true,
          "internalType": "address",
          "name": "subject",
          "type": "address"
        }
      ],
      "name": "AddressWhitelisted",
      "type": "event"
    },
    {
      "anonymous": false,
      "inputs": [
        {
          "indexed": true,
          "internalType": "uint256",
          "name": "id",
          "type": "uint256"
        },
        {
          "indexed": true,
          "internalType": "address",
          "name": "subject",
          "type": "address"
        },
        {
          "indexed": false,
          "internalType": "enum FraudAnalytics.RiskLevel",
          "name": "severity",
          "type": "uint8"
        }
      ],
      "name": "AlertGenerated",
      "type": "event"
    },
    {
      "anonymous": false,
      "inputs": [
        {
          "indexed": true,
          "internalType": "address",
          "name": "previousOwner",
          "type": "address"
        },
        {
          "indexed": true,
          "internalType": "address",
          "name": "newOwner",
          "type": "address"
        }
      ],
      "name": "OwnershipTransferred",
      "type": "event"
    },
    {
      "anonymous": false,
      "inputs": [
        {
          "indexed": true,
          "internalType": "uint256",
          "name": "id",
          "type": "uint256"
        },
        {
          "indexed": true,
          "internalType": "address",
          "name": "from",
          "type": "address"
        },
        {
          "indexed": true,
          "internalType": "address",
          "name": "to",
          "type": "address"
        },
        {
          "indexed": false,
          "internalType": "uint256",
          "name": "amount",
          "type": "uint256"
        },
        {
          "indexed": false,
          "internalType": "uint8",
          "name": "riskScore",
          "type": "uint8"
        }
      ],
      "name": "TransactionRecorded",
      "type": "event"
    },
    {
      "inputs": [
        {
          "internalType": "address",
          "name": "analyzer",
          "type": "address"
        }
      ],
      "name": "addTrustedAnalyzer",
      "outputs": [],
      "stateMutability": "nonpayable",
      "type": "function"
    },
    {
      "inputs": [
        {
          "internalType": "address",
          "name": "",
          "type": "address"
        }
      ],
      "name": "addressRiskScores",
      "outputs": [
        {
          "internalType": "uint8",
          "name": "",
          "type": "uint8"
        }
      ],
      "stateMutability": "view",
      "type": "function"
    },
    {
      "inputs": [
        {
          "internalType": "address",
          "name": "",
          "type": "address"
        }
      ],
      "name": "addressTransactionCount",
      "outputs": [
        {
          "internalType": "uint256",
          "name": "",
          "type": "uint256"
        }
      ],
      "stateMutability": "view",
      "type": "function"
    },
    {
      "inputs": [
        {
          "internalType": "uint256",
          "name": "",
          "type": "uint256"
        }
      ],
      "name": "alerts",
      "outputs": [
        {
          "internalType": "uint256",
          "name": "id",
          "type": "uint256"
        },
        {
          "internalType": "address",
          "name": "subject",
          "type": "address"
        },
        {
          "internalType": "string",
          "name": "description",
          "type": "string"
        },
        {
          "internalType": "enum FraudAnalytics.RiskLevel",
          "name": "severity",
          "type": "uint8"
        },
        {
          "internalType": "uint256",
          "name": "timestamp",
          "type": "uint256"
        },
        {
          "internalType": "bool",
          "name": "active",
          "type": "bool"
        }
      ],
      "stateMutability": "view",
      "type": "function"
    },
    {
      "inputs": [
        {
          "internalType": "address",
          "name": "subject",
          "type": "address"
        }
      ],
      "name": "blacklistAddress",
      "outputs": [],
      "stateMutability": "nonpayable",
      "type": "function"
    },
    {
      "inputs": [
        {
          "internalType": "address",
          "name": "subject",
          "type": "address"
        },
        {
          "internalType": "string",
          "name": "description",
          "type": "string"
        },
        {
          "internalType": "enum FraudAnalytics.RiskLevel",
          "name": "severity",
          "type": "uint8"
        }
      ],
      "name": "generateAlert",
      "outputs": [],
      "stateMutability": "nonpayable",
      "type": "function"
    },
    {
      "inputs": [],
      "name": "getActiveAlertCount",
      "outputs": [
        {
          "internalType": "uint256",
          "name": "",
          "type": "uint256"
        }
      ],
      "stateMutability": "view",
      "type": "function"
    },
    {
      "inputs": [],
      "name": "getAlertCount",
      "outputs": [
        {
          "internalType": "uint256",
          "name": "",
          "type": "uint256"
        }
      ],
      "stateMutability": "view",
      "type": "function"
    },
    {
      "inputs": [],
      "name": "getTransactionCount",
      "outputs": [
        {
          "internalType": "uint256",
          "name": "",
          "type": "uint256"
        }
      ],
      "stateMutability": "view",
      "type": "function"
    },
    {
      "inputs": [],
      "name": "highRiskThreshold",
      "outputs": [
        {
          "internalType": "uint8",
          "name": "",
          "type": "uint8"
        }
      ],
      "stateMutability": "view",
      "type": "function"
    },
    {
      "inputs": [
        {
          "internalType": "address",
          "name": "subject",
          "type": "address"
        }
      ],
      "name": "isBlacklisted",
      "outputs": [
        {
          "internalType": "bool",
          "name": "",
          "type": "bool"
        }
      ],
      "stateMutability": "view",
      "type": "function"
    },
    {
      "inputs": [
        {
          "internalType": "address",
          "name": "subject",
          "type": "address"
        }
      ],
      "name": "isWhitelisted",
      "outputs": [
        {
          "internalType": "bool",
          "name": "",
          "type": "bool"
        }
      ],
      "stateMutability": "view",
      "type": "function"
    },
    {
      "inputs": [],
      "name": "mediumRiskThreshold",
      "outputs": [
        {
          "internalType": "uint8",
          "name": "",
          "type": "uint8"
        }
      ],
      "stateMutability": "view",
      "type": "function"
    },
    {
      "inputs": [],
      "name": "owner",
      "outputs": [
        {
          "internalType": "address",
          "name": "",
          "type": "address"
        }
      ],
      "stateMutability": "view",
      "type": "function"
    },
    {
      "inputs": [
        {
          "internalType": "address",
          "name": "from",
          "type": "address"
        },
        {
          "internalType": "address",
          "name": "to",
          "type": "address"
        },
        {
          "internalType": "uint256",
          "name": "amount",
          "type": "uint256"
        },
        {
          "internalType": "string",
          "name": "transactionType",
          "type": "string"
        },
        {
          "internalType": "uint8",
          "name": "riskScore",
          "type": "uint8"
        }
      ],
      "name": "recordTransaction",
      "outputs": [],
      "stateMutability": "nonpayable",
      "type": "function"
    },
    {
      "inputs": [
        {
          "internalType": "address",
          "name": "subject",
          "type": "address"
        }
      ],
      "name": "removeFromWhitelist",
      "outputs": [],
      "stateMutability": "nonpayable",
      "type": "function"
    },
    {
      "inputs": [
        {
          "internalType": "address",
          "name": "analyzer",
          "type": "address"
        }
      ],
      "name": "removeTrustedAnalyzer",
      "outputs": [],
      "stateMutability": "nonpayable",
      "type": "function"
    },
    {
      "inputs": [],
      "name": "renounceOwnership",
      "outputs": [],
      "stateMutability": "nonpayable",
      "type": "function"
    },
    {
      "inputs": [
        {
          "internalType": "uint256",
          "name": "alertId",
          "type": "uint256"
        }
      ],
      "name": "resolveAlert",
      "outputs": [],
      "stateMutability": "nonpayable",
      "type": "function"
    },
    {
      "inputs": [
        {
          "internalType": "address",
          "name": "subject",
          "type": "address"
        },
        {
          "internalType": "uint8",
          "name": "riskScore",
          "type": "uint8"
        }
      ],
      "name": "setAddressRiskScore",
      "outputs": [],
      "stateMutability": "nonpayable",
      "type": "function"
    },
    {
      "inputs": [
        {
          "internalType": "uint256",
          "name": "",
          "type": "uint256"
        }
      ],
      "name": "transactions",
      "outputs": [
        {
          "internalType": "address",
          "name": "from",
          "type": "address"
        },
        {
          "internalType": "address",
          "name": "to",
          "type": "address"
        },
        {
          "internalType": "uint256",
          "name": "amount",
          "type": "uint256"
        },
        {
          "internalType": "uint256",
          "name": "timestamp",
          "type": "uint256"
        },
        {
          "internalType": "string",
          "name": "transactionType",
          "type": "string"
        },
        {
          "internalType": "uint8",
          "name": "riskScore",
          "type": "uint8"
        },
        {
          "internalType": "bool",
          "name": "flagged",
          "type": "bool"
        }
      ],
      "stateMutability": "view",
      "type": "function"
    },
    {
      "inputs": [
        {
          "internalType": "address",
          "name": "newOwner",
          "type": "address"
        }
      ],
      "name": "transferOwnership",
      "outputs": [],
      "stateMutability": "nonpayable",
      "type": "function"
    },
    {
      "inputs": [
        {
          "internalType": "address",
          "name": "",
          "type": "address"
        }
      ],
      "name": "trustedAnalyzers",
      "outputs": [
        {
          "internalType": "bool",
          "name": "",
          "type": "bool"
        }
      ],
      "stateMutability": "view",
      "type": "function"
    },
    {
      "inputs": [
        {
          "internalType": "uint8",
          "name": "newMediumThreshold",
          "type": "uint8"
        },
        {
          "internalType": "uint8",
          "name": "newHighThreshold",
          "type": "uint8"
        }
      ],
      "name": "updateRiskThresholds",
      "outputs": [],
      "stateMutability": "nonpayable",
      "type": "function"
    },
    {
      "inputs": [
        {
          "internalType": "address",
          "name": "subject",
          "type": "address"
        }
      ],
      "name": "whitelistAddress",
      "outputs": [],
      "stateMutability": "nonpayable",
      "type": "function"
    }
  ],
  "bytecode": "0x6080604052600a805461ffff191661462817905534801561001f57600080fd5b50338061004657604051631e4fbdf760e01b81526000600482015260240160405180910390fd5b61004f8161006f565b50336000908152600960205260409020805460ff191660011790556100bf565b600080546001600160a01b038381166001600160a01b0319831681178455604051919092169283917f8be0079c531659141344cd1fd0a4f28419497f9722a3daafe3b4186f6b6457e09190a35050565b6119b8806100ce6000396000f3fe608060405234801561001057600080fd5b50600436106101735760003560e01c80638a78c320116100de578063c28d5a7e11610097578063e987465211610071578063e987465214610361578063f2fde38b14610374578063f3290d7514610387578063fe575a871461039a57600080fd5b8063c28d5a7e14610318578063c6493abd1461033b578063db0549ef1461034e57600080fd5b80638a78c320146102975780638ab1d6811461029f5780638da5cb5b146102b25780639ace38c2146102cd578063a1c57778146102f3578063bf88ed7e1461030557600080fd5b806340411fc81161013057806340411fc81461021e5780634156658514610226578063658242b5146102395780637084f9b214610259578063715018a61461027c5780637c7e9b2c1461028457600080fd5b8063076f4f0f14610178578063171d073a1461019c5780631d875045146101c15780632e0e053f146101d65780632e7700f0146101e95780633af32abf146101fb575b600080fd5b600a546101859060ff1681565b60405160ff90911681526020015b60405180910390f35b6101af6101aa3660046113e9565b6103ad565b60405161019396959493929190611480565b6101d46101cf3660046114e8565b61048f565b005b6101d46101e43660046113e9565b610584565b6001545b604051908152602001610193565b61020e610209366004611532565b61064a565b6040519015158152602001610193565b6002546101ed565b6101d4610234366004611532565b61065d565b6101ed610247366004611532565b60046020526000908152604090205481565b61020e610267366004611532565b60096020526000908152604090205460ff1681565b6101d46106c5565b6101d46102923660046115f0565b6106d9565b6101ed61072d565b6101d46102ad366004611532565b610791565b6000546040516001600160a01b039091168152602001610193565b6102e06102db3660046113e9565b6107a8565b6040516101939796959493929190611656565b600a5461018590610100900460ff1681565b6101d4610313366004611532565b610893565b610185610326366004611532565b60036020526000908152604090205460ff1681565b6101d46103493660046116ae565b6108bf565b6101d461035c366004611532565b610c48565b6101d461036f366004611727565b610c71565b6101d4610382366004611532565b610de7565b6101d4610395366004611532565b610e25565b61020e6103a8366004611532565b610ed4565b600281815481106103bd57600080fd5b60009182526020909120600690910201805460018201546002830180549294506001600160a01b0390911692916103f390611743565b80601f016020809104026020016040519081016040528092919081815260200182805461041f90611743565b801561046c5780601f106104415761010080835404028352916020019161046c565b820191906000526020600020905b81548152906001019060200180831161044f57829003601f168201915b5050505060038301546004840154600590940154929360ff918216939092501686565b610497610ee1565b8060ff168260ff161061050c5760405162461bcd60e51b815260206004820152603260248201527f4d656469756d207468726573686f6c64206d757374206265206c6f77657220746044820152711a185b881a1a59da081d1a1c995cda1bdb1960721b60648201526084015b60405180910390fd5b60648160ff1611156105605760405162461bcd60e51b815260206004820181905260248201527f48696768207468726573686f6c642063616e6e6f7420657863656564203130306044820152606401610503565b600a805460ff9283166101000261ffff199091169290931691909117919091179055565b3360009081526009602052604090205460ff16806105ac57506000546001600160a01b031633145b6105c85760405162461bcd60e51b815260040161050390611777565b60025481106106105760405162461bcd60e51b8152602060048201526014602482015273105b195c9d08191bd95cc81b9bdd08195e1a5cdd60621b6044820152606401610503565b600060028281548110610625576106256117ac565b60009182526020909120600690910201600501805460ff191691151591909117905550565b6000610657600783610f0e565b92915050565b610665610ee1565b610670600582610f0e565b1561068257610680600582610f33565b505b61068d600782610f48565b506040516001600160a01b038216907f4f783c179409b4127238bc9c990bc99b9a651666a0d20b51d6c42849eb88466d90600090a250565b6106cd610ee1565b6106d76000610f5d565b565b3360009081526009602052604090205460ff168061070157506000546001600160a01b031633145b61071d5760405162461bcd60e51b815260040161050390611777565b610728838383610fad565b505050565b600080805b60025481101561078b576002818154811061074f5761074f6117ac565b600091825260209091206005600690920201015460ff16156107795781610775816117d8565b9250505b80610783816117d8565b915050610732565b50919050565b610799610ee1565b6107a4600782610f33565b5050565b600181815481106107b857600080fd5b6000918252602090912060069091020180546001820154600283015460038401546004850180546001600160a01b0395861697509390941694919390926107fe90611743565b80601f016020809104026020016040519081016040528092919081815260200182805461082a90611743565b80156108775780601f1061084c57610100808354040283529160200191610877565b820191906000526020600020905b81548152906001019060200180831161085a57829003601f168201915b5050506005909301549192505060ff8082169161010090041687565b61089b610ee1565b6001600160a01b03166000908152600960205260409020805460ff19166001179055565b3360009081526009602052604090205460ff16806108e757506000546001600160a01b031633145b6109035760405162461bcd60e51b815260040161050390611777565b60648160ff1611156109575760405162461bcd60e51b815260206004820181905260248201527f5269736b2073636f7265206d757374206265206265747765656e20302d3130306044820152606401610503565b6040805160e0810182526001600160a01b0380881682528681166020830190815292820186815242606084019081526080840187815260ff80881660a08701819052600a546101009004909116111560c0860152600180548082018255600091909152855160069091027fb10e2d527612073b26eecdfd717e6a320cf44b4afac2b0732d9fcbe2b7fa0cf6810180549287166001600160a01b031993841617815597517fb10e2d527612073b26eecdfd717e6a320cf44b4afac2b0732d9fcbe2b7fa0cf7820180549190971692169190911790945591517fb10e2d527612073b26eecdfd717e6a320cf44b4afac2b0732d9fcbe2b7fa0cf8840155517fb10e2d527612073b26eecdfd717e6a320cf44b4afac2b0732d9fcbe2b7fa0cf9830155519192917fb10e2d527612073b26eecdfd717e6a320cf44b4afac2b0732d9fcbe2b7fa0cfa90910190610aaa908261183f565b5060a08201516005909101805460c09093015115156101000261ffff1990931660ff909216919091179190911790556001600160a01b0385166000908152600460205260408120805491610afd836117d8565b90915550506001600160a01b0384166000908152600460205260408120805491610b26836117d8565b9091555050600a5460ff610100909104811690821610610b8657610b81856040518060400160405280601e81526020017f486967682d7269736b207472616e73616374696f6e20646574656374656400008152506002610fad565b610bd7565b600a5460ff90811690821610610bd757610bd7856040518060400160405280602081526020017f4d656469756d2d7269736b207472616e73616374696f6e2064657465637465648152506001610fad565b610be185826110ed565b836001600160a01b0316856001600160a01b031660018080549050610c0691906118ff565b6040805187815260ff861660208201527f37ae43df5167d7f0d9e4491923036565d67e691a18c46f70aa6264ba0e97822f910160405180910390a45050505050565b610c50610ee1565b6001600160a01b03166000908152600960205260409020805460ff19169055565b3360009081526009602052604090205460ff1680610c9957506000546001600160a01b031633145b610cb55760405162461bcd60e51b815260040161050390611777565b60648160ff161115610d095760405162461bcd60e51b815260206004820181905260248201527f5269736b2073636f7265206d757374206265206265747765656e20302d3130306044820152606401610503565b6001600160a01b0382166000908152600360205260409020805460ff83811660ff1983168117909355600a54918116926101009092041611801590610d545750610d528361064a565b155b15610d6757610d6283611255565b610d9a565b600a5460ff6101009091048116908316108015610d885750610d8883610ed4565b15610d9a57610d98600584610f33565b505b6040805160ff8084168252841660208201526001600160a01b038516917fa4b65674632ba2f80c49d1b2790bffc0fa9dc72aa6e0b0e2f6e57b5fb9a5f40c910160405180910390a2505050565b610def610ee1565b6001600160a01b038116610e1957604051631e4fbdf760e01b815260006004820152602401610503565b610e2281610f5d565b50565b3360009081526009602052604090205460ff1680610e4d57506000546001600160a01b031633145b610e695760405162461bcd60e51b815260040161050390611777565b610e728161064a565b15610ecb5760405162461bcd60e51b8152602060048201526024808201527f43616e6e6f7420626c61636b6c6973742077686974656c6973746564206164646044820152637265737360e01b6064820152608401610503565b610e2281611255565b6000610657600583610f0e565b6000546001600160a01b031633146106d75760405163118cdaa760e01b8152336004820152602401610503565b6001600160a01b038116600090815260018301602052604081205415155b9392505050565b6000610f2c836001600160a01b0384166112a7565b6000610f2c836001600160a01b03841661139a565b600080546001600160a01b038381166001600160a01b0319831681178455604051919092169283917f8be0079c531659141344cd1fd0a4f28419497f9722a3daafe3b4186f6b6457e09190a35050565b600280546040805160c0810182528281526001600160a01b0387166020820152908101859052909190606081018483811115610feb57610feb611448565b815242602080830191909152600160409283018190528454808201865560009586529482902084516006909602019485559083015190840180546001600160a01b0319166001600160a01b039092169190911790558101519091906002820190611055908261183f565b50606082015160038201805460ff1916600183600281111561107957611079611448565b02179055506080820151600482015560a0909101516005909101805460ff19169115159190911790556040516001600160a01b0385169082907fc42994a59d61dc8c47f615e50b3d0d3a00310f5cfff951707e40a2679ae9eacb906110df908690611912565b60405180910390a350505050565b6001600160a01b03821660009081526003602090815260408083205460049092529091205460ff909116906001811161114a576001600160a01b0384166000908152600360205260409020805460ff191660ff85161790556111aa565b6000600a61115c60ff86166003611920565b61116a60ff86166007611920565b6111749190611937565b61117e919061194a565b6001600160a01b0386166000908152600360205260409020805460ff191660ff92909216919091179055505b600a546001600160a01b03851660009081526003602052604090205460ff61010090920482169116108015906111e657506111e48461064a565b155b156111f4576111f484611255565b6001600160a01b03841660008181526003602090815260409182902054825160ff8088168252909116918101919091527fa4b65674632ba2f80c49d1b2790bffc0fa9dc72aa6e0b0e2f6e57b5fb9a5f40c910160405180910390a250505050565b611260600582610f0e565b610e225761126f600582610f48565b506040516001600160a01b038216907fdaf49ab9345b6cb75bcb5a7f726bff9183c34dcf5c098c385730f9fd893765f690600090a250565b600081815260018301602052604081205480156113905760006112cb6001836118ff565b85549091506000906112df906001906118ff565b90508082146113445760008660000182815481106112ff576112ff6117ac565b9060005260206000200154905080876000018481548110611322576113226117ac565b6000918252602080832090910192909255918252600188019052604090208390555b85548690806113555761135561196c565b600190038181906000526020600020016000905590558560010160008681526020019081526020016000206000905560019350505050610657565b6000915050610657565b60008181526001830160205260408120546113e157508154600181810184556000848152602080822090930184905584548482528286019093526040902091909155610657565b506000610657565b6000602082840312156113fb57600080fd5b5035919050565b6000815180845260005b818110156114285760208185018101518683018201520161140c565b506000602082860101526020601f19601f83011685010191505092915050565b634e487b7160e01b600052602160045260246000fd5b6003811061147c57634e487b7160e01b600052602160045260246000fd5b9052565b8681526001600160a01b038616602082015260c0604082018190526000906114aa90830187611402565b90506114b9606083018661145e565b83608083015282151560a0830152979650505050505050565b803560ff811681146114e357600080fd5b919050565b600080604083850312156114fb57600080fd5b611504836114d2565b9150611512602084016114d2565b90509250929050565b80356001600160a01b03811681146114e357600080fd5b60006020828403121561154457600080fd5b610f2c8261151b565b634e487b7160e01b600052604160045260246000fd5b600082601f83011261157457600080fd5b813567ffffffffffffffff8082111561158f5761158f61154d565b604051601f8301601f19908116603f011681019082821181831017156115b7576115b761154d565b816040528381528660208588010111156115d057600080fd5b836020870160208301376000602085830101528094505050505092915050565b60008060006060848603121561160557600080fd5b61160e8461151b565b9250602084013567ffffffffffffffff81111561162a57600080fd5b61163686828701611563565b92505060408401356003811061164b57600080fd5b809150509250925092565b6001600160a01b03888116825287166020820152604081018690526060810185905260e06080820181905260009061169090830186611402565b60ff9490941660a08301525090151560c09091015295945050505050565b600080600080600060a086880312156116c657600080fd5b6116cf8661151b565b94506116dd6020870161151b565b935060408601359250606086013567ffffffffffffffff81111561170057600080fd5b61170c88828901611563565b92505061171b608087016114d2565b90509295509295909350565b6000806040838503121561173a57600080fd5b6115048361151b565b600181811c9082168061175757607f821691505b60208210810361078b57634e487b7160e01b600052602260045260246000fd5b6020808252818101527f43616c6c6572206973206e6f742061207472757374656420616e616c797a6572604082015260600190565b634e487b7160e01b600052603260045260246000fd5b634e487b7160e01b600052601160045260246000fd5b6000600182016117ea576117ea6117c2565b5060010190565b601f82111561072857600081815260208120601f850160051c810160208610156118185750805b601f850160051c820191505b8181101561183757828155600101611824565b505050505050565b815167ffffffffffffffff8111156118595761185961154d565b61186d816118678454611743565b846117f1565b602080601f8311600181146118a2576000841561188a5750858301515b600019600386901b1c1916600185901b178555611837565b600085815260208120601f198616915b828110156118d1578886015182559484019460019091019084016118b2565b50858210156118ef5787850151600019600388901b60f8161c191681555b5050505050600190811b01905550565b81810381811115610657576106576117c2565b60208101610657828461145e565b8082028115828204841417610657576106576117c2565b80820180821115610657576106576117c2565b60008261196757634e487b7160e01b600052601260045260246000fd5b500490565b634e487b7160e01b600052603160045260246000fdfea26469706673582212201266ce4c9bac8c9b84e3305f69ab76e35ea03068739be37977c9160b533934cc64736f6c63430008140033",
  "linkReferences": {},
  "deployedLinkReferences": {}
}